{
  "contractName": "SonoraMaker",
  "abi": [
    {
      "inputs": [
        {
          "internalType": "string",
          "name": "baseURI",
          "type": "string"
        }
      ],
      "stateMutability": "nonpayable",
      "type": "constructor"
    },
    {
      "inputs": [],
      "name": "ApprovalCallerNotOwnerNorApproved",
      "type": "error"
    },
    {
      "inputs": [],
      "name": "ApprovalQueryForNonexistentToken",
      "type": "error"
    },
    {
      "inputs": [],
      "name": "ApprovalToCurrentOwner",
      "type": "error"
    },
    {
      "inputs": [],
      "name": "ApproveToCaller",
      "type": "error"
    },
    {
      "inputs": [],
      "name": "BalanceQueryForZeroAddress",
      "type": "error"
    },
    {
      "inputs": [],
      "name": "MintToZeroAddress",
      "type": "error"
    },
    {
      "inputs": [],
      "name": "MintZeroQuantity",
      "type": "error"
    },
    {
      "inputs": [],
      "name": "OwnerQueryForNonexistentToken",
      "type": "error"
    },
    {
      "inputs": [],
      "name": "TransferCallerNotOwnerNorApproved",
      "type": "error"
    },
    {
      "inputs": [],
      "name": "TransferFromIncorrectOwner",
      "type": "error"
    },
    {
      "inputs": [],
      "name": "TransferToNonERC721ReceiverImplementer",
      "type": "error"
    },
    {
      "inputs": [],
      "name": "TransferToZeroAddress",
      "type": "error"
    },
    {
      "inputs": [],
      "name": "URIQueryForNonexistentToken",
      "type": "error"
    },
    {
      "anonymous": false,
      "inputs": [
        {
          "indexed": true,
          "internalType": "address",
          "name": "owner",
          "type": "address"
        },
        {
          "indexed": true,
          "internalType": "address",
          "name": "approved",
          "type": "address"
        },
        {
          "indexed": true,
          "internalType": "uint256",
          "name": "tokenId",
          "type": "uint256"
        }
      ],
      "name": "Approval",
      "type": "event"
    },
    {
      "anonymous": false,
      "inputs": [
        {
          "indexed": true,
          "internalType": "address",
          "name": "owner",
          "type": "address"
        },
        {
          "indexed": true,
          "internalType": "address",
          "name": "operator",
          "type": "address"
        },
        {
          "indexed": false,
          "internalType": "bool",
          "name": "approved",
          "type": "bool"
        }
      ],
      "name": "ApprovalForAll",
      "type": "event"
    },
    {
      "anonymous": false,
      "inputs": [
        {
          "indexed": true,
          "internalType": "address",
          "name": "previousOwner",
          "type": "address"
        },
        {
          "indexed": true,
          "internalType": "address",
          "name": "newOwner",
          "type": "address"
        }
      ],
      "name": "OwnershipTransferred",
      "type": "event"
    },
    {
      "anonymous": false,
      "inputs": [
        {
          "indexed": true,
          "internalType": "address",
          "name": "from",
          "type": "address"
        },
        {
          "indexed": true,
          "internalType": "address",
          "name": "to",
          "type": "address"
        },
        {
          "indexed": true,
          "internalType": "uint256",
          "name": "tokenId",
          "type": "uint256"
        }
      ],
      "name": "Transfer",
      "type": "event"
    },
    {
      "inputs": [],
      "name": "MAX_SONORA",
      "outputs": [
        {
          "internalType": "uint256",
          "name": "",
          "type": "uint256"
        }
      ],
      "stateMutability": "view",
      "type": "function",
      "constant": true
    },
    {
      "inputs": [],
      "name": "MILADY_MAKER",
      "outputs": [
        {
          "internalType": "address",
          "name": "",
          "type": "address"
        }
      ],
      "stateMutability": "view",
      "type": "function",
      "constant": true
    },
    {
      "inputs": [
        {
          "internalType": "address",
          "name": "to",
          "type": "address"
        },
        {
          "internalType": "uint256",
          "name": "tokenId",
          "type": "uint256"
        }
      ],
      "name": "approve",
      "outputs": [],
      "stateMutability": "nonpayable",
      "type": "function"
    },
    {
      "inputs": [
        {
          "internalType": "address",
          "name": "owner",
          "type": "address"
        }
      ],
      "name": "balanceOf",
      "outputs": [
        {
          "internalType": "uint256",
          "name": "",
          "type": "uint256"
        }
      ],
      "stateMutability": "view",
      "type": "function",
      "constant": true
    },
    {
      "inputs": [
        {
          "internalType": "uint256",
          "name": "tokenId",
          "type": "uint256"
        }
      ],
      "name": "getApproved",
      "outputs": [
        {
          "internalType": "address",
          "name": "",
          "type": "address"
        }
      ],
      "stateMutability": "view",
      "type": "function",
      "constant": true
    },
    {
      "inputs": [
        {
          "internalType": "address",
          "name": "owner",
          "type": "address"
        },
        {
          "internalType": "address",
          "name": "operator",
          "type": "address"
        }
      ],
      "name": "isApprovedForAll",
      "outputs": [
        {
          "internalType": "bool",
          "name": "",
          "type": "bool"
        }
      ],
      "stateMutability": "view",
      "type": "function",
      "constant": true
    },
    {
      "inputs": [],
      "name": "name",
      "outputs": [
        {
          "internalType": "string",
          "name": "",
          "type": "string"
        }
      ],
      "stateMutability": "view",
      "type": "function",
      "constant": true
    },
    {
      "inputs": [],
      "name": "owner",
      "outputs": [
        {
          "internalType": "address",
          "name": "",
          "type": "address"
        }
      ],
      "stateMutability": "view",
      "type": "function",
      "constant": true
    },
    {
      "inputs": [
        {
          "internalType": "uint256",
          "name": "tokenId",
          "type": "uint256"
        }
      ],
      "name": "ownerOf",
      "outputs": [
        {
          "internalType": "address",
          "name": "",
          "type": "address"
        }
      ],
      "stateMutability": "view",
      "type": "function",
      "constant": true
    },
    {
      "inputs": [],
      "name": "renounceOwnership",
      "outputs": [],
      "stateMutability": "nonpayable",
      "type": "function"
    },
    {
      "inputs": [
        {
          "internalType": "address",
          "name": "from",
          "type": "address"
        },
        {
          "internalType": "address",
          "name": "to",
          "type": "address"
        },
        {
          "internalType": "uint256",
          "name": "tokenId",
          "type": "uint256"
        }
      ],
      "name": "safeTransferFrom",
      "outputs": [],
      "stateMutability": "nonpayable",
      "type": "function"
    },
    {
      "inputs": [
        {
          "internalType": "address",
          "name": "from",
          "type": "address"
        },
        {
          "internalType": "address",
          "name": "to",
          "type": "address"
        },
        {
          "internalType": "uint256",
          "name": "tokenId",
          "type": "uint256"
        },
        {
          "internalType": "bytes",
          "name": "_data",
          "type": "bytes"
        }
      ],
      "name": "safeTransferFrom",
      "outputs": [],
      "stateMutability": "nonpayable",
      "type": "function"
    },
    {
      "inputs": [],
      "name": "saleIsActive",
      "outputs": [
        {
          "internalType": "bool",
          "name": "",
          "type": "bool"
        }
      ],
      "stateMutability": "view",
      "type": "function",
      "constant": true
    },
    {
      "inputs": [
        {
          "internalType": "address",
          "name": "operator",
          "type": "address"
        },
        {
          "internalType": "bool",
          "name": "approved",
          "type": "bool"
        }
      ],
      "name": "setApprovalForAll",
      "outputs": [],
      "stateMutability": "nonpayable",
      "type": "function"
    },
    {
      "inputs": [
        {
          "internalType": "bytes4",
          "name": "interfaceId",
          "type": "bytes4"
        }
      ],
      "name": "supportsInterface",
      "outputs": [
        {
          "internalType": "bool",
          "name": "",
          "type": "bool"
        }
      ],
      "stateMutability": "view",
      "type": "function",
      "constant": true
    },
    {
      "inputs": [],
      "name": "symbol",
      "outputs": [
        {
          "internalType": "string",
          "name": "",
          "type": "string"
        }
      ],
      "stateMutability": "view",
      "type": "function",
      "constant": true
    },
    {
      "inputs": [
        {
          "internalType": "uint256",
          "name": "tokenId",
          "type": "uint256"
        }
      ],
      "name": "tokenURI",
      "outputs": [
        {
          "internalType": "string",
          "name": "",
          "type": "string"
        }
      ],
      "stateMutability": "view",
      "type": "function",
      "constant": true
    },
    {
      "inputs": [],
      "name": "totalSupply",
      "outputs": [
        {
          "internalType": "uint256",
          "name": "",
          "type": "uint256"
        }
      ],
      "stateMutability": "view",
      "type": "function",
      "constant": true
    },
    {
      "inputs": [
        {
          "internalType": "address",
          "name": "from",
          "type": "address"
        },
        {
          "internalType": "address",
          "name": "to",
          "type": "address"
        },
        {
          "internalType": "uint256",
          "name": "tokenId",
          "type": "uint256"
        }
      ],
      "name": "transferFrom",
      "outputs": [],
      "stateMutability": "nonpayable",
      "type": "function"
    },
    {
      "inputs": [
        {
          "internalType": "address",
          "name": "newOwner",
          "type": "address"
        }
      ],
      "name": "transferOwnership",
      "outputs": [],
      "stateMutability": "nonpayable",
      "type": "function"
    },
    {
      "inputs": [],
      "name": "flipSaleState",
      "outputs": [],
      "stateMutability": "nonpayable",
      "type": "function"
    },
    {
      "inputs": [],
      "name": "mint",
      "outputs": [],
      "stateMutability": "nonpayable",
      "type": "function"
    },
    {
      "inputs": [
        {
          "internalType": "uint256",
          "name": "quantity",
          "type": "uint256"
        }
      ],
      "name": "reserveMint",
      "outputs": [],
      "stateMutability": "nonpayable",
      "type": "function"
    },
    {
      "inputs": [
        {
          "internalType": "string",
          "name": "baseURI",
          "type": "string"
        }
      ],
      "name": "setBaseURI",
      "outputs": [],
      "stateMutability": "nonpayable",
      "type": "function"
    }
  ],
  "bytecode": "0x60806040526000600a60006101000a81548160ff0219169083151502179055503480156200002c57600080fd5b506040516200385938038062003859833981810160405281019062000052919062000468565b6040518060400160405280600b81526020017f536f6e6f72614d616b65720000000000000000000000000000000000000000008152506040518060400160405280600481526020017f534e524d000000000000000000000000000000000000000000000000000000008152508160029080519060200190620000d69291906200021b565b508060039080519060200190620000ef9291906200021b565b50620001006200014860201b60201c565b6000819055505050620001286200011c6200014d60201b60201c565b6200015560201b60201c565b8060099080519060200190620001409291906200021b565b50506200051d565b600090565b600033905090565b6000600860009054906101000a900473ffffffffffffffffffffffffffffffffffffffff16905081600860006101000a81548173ffffffffffffffffffffffffffffffffffffffff021916908373ffffffffffffffffffffffffffffffffffffffff1602179055508173ffffffffffffffffffffffffffffffffffffffff168173ffffffffffffffffffffffffffffffffffffffff167f8be0079c531659141344cd1fd0a4f28419497f9722a3daafe3b4186f6b6457e060405160405180910390a35050565b8280546200022990620004e8565b90600052602060002090601f0160209004810192826200024d576000855562000299565b82601f106200026857805160ff191683800117855562000299565b8280016001018555821562000299579182015b82811115620002985782518255916020019190600101906200027b565b5b509050620002a89190620002ac565b5090565b5b80821115620002c7576000816000905550600101620002ad565b5090565b6000604051905090565b600080fd5b600080fd5b600080fd5b600080fd5b6000601f19601f8301169050919050565b7f4e487b7100000000000000000000000000000000000000000000000000000000600052604160045260246000fd5b6200033482620002e9565b810181811067ffffffffffffffff82111715620003565762000355620002fa565b5b80604052505050565b60006200036b620002cb565b905062000379828262000329565b919050565b600067ffffffffffffffff8211156200039c576200039b620002fa565b5b620003a782620002e9565b9050602081019050919050565b60005b83811015620003d4578082015181840152602081019050620003b7565b83811115620003e4576000848401525b50505050565b600062000401620003fb846200037e565b6200035f565b90508281526020810184848401111562000420576200041f620002e4565b5b6200042d848285620003b4565b509392505050565b600082601f8301126200044d576200044c620002df565b5b81516200045f848260208601620003ea565b91505092915050565b600060208284031215620004815762000480620002d5565b5b600082015167ffffffffffffffff811115620004a257620004a1620002da565b5b620004b08482850162000435565b91505092915050565b7f4e487b7100000000000000000000000000000000000000000000000000000000600052602260045260246000fd5b600060028204905060018216806200050157607f821691505b602082108103620005175762000516620004b9565b5b50919050565b61332c806200052d6000396000f3fe608060405234801561001057600080fd5b50600436106101585760003560e01c806355f804b3116100c3578063a22cb4651161007c578063a22cb4651461037b578063b88d4fde14610397578063c87b56dd146103b3578063e985e9c5146103e3578063eb8d244414610413578063f2fde38b1461043157610158565b806355f804b3146102b95780636352211e146102d557806370a0823114610305578063715018a6146103355780638da5cb5b1461033f57806395d89b411461035d57610158565b806318160ddd1161011557806318160ddd1461021d57806323b872dd1461023b57806334918dfd146102575780633a516c131461026157806342842e0e1461027f578063499224e91461029b57610158565b806301ffc9a71461015d57806306fdde031461018d578063081812fc146101ab578063095ea7b3146101db5780631249c58b146101f75780631342ff4c14610201575b600080fd5b6101776004803603810190610172919061252e565b61044d565b6040516101849190612576565b60405180910390f35b61019561052f565b6040516101a2919061262a565b60405180910390f35b6101c560048036038101906101c09190612682565b6105c1565b6040516101d291906126f0565b60405180910390f35b6101f560048036038101906101f09190612737565b61063d565b005b6101ff610741565b005b61021b60048036038101906102169190612682565b610972565b005b610225610b0b565b6040516102329190612786565b60405180910390f35b610255600480360381019061025091906127a1565b610b22565b005b61025f610b32565b005b610269610bda565b60405161027691906126f0565b60405180910390f35b610299600480360381019061029491906127a1565b610bf2565b005b6102a3610c12565b6040516102b09190612786565b60405180910390f35b6102d360048036038101906102ce9190612859565b610c18565b005b6102ef60048036038101906102ea9190612682565b610caa565b6040516102fc91906126f0565b60405180910390f35b61031f600480360381019061031a91906128a6565b610cc0565b60405161032c9190612786565b60405180910390f35b61033d610d8f565b005b610347610e17565b60405161035491906126f0565b60405180910390f35b610365610e41565b604051610372919061262a565b60405180910390f35b610395600480360381019061039091906128ff565b610ed3565b005b6103b160048036038101906103ac9190612a6f565b61104a565b005b6103cd60048036038101906103c89190612682565b6110c2565b6040516103da919061262a565b60405180910390f35b6103fd60048036038101906103f89190612af2565b611160565b60405161040a9190612576565b60405180910390f35b61041b6111f4565b6040516104289190612576565b60405180910390f35b61044b600480360381019061044691906128a6565b611207565b005b60007f80ac58cd000000000000000000000000000000000000000000000000000000007bffffffffffffffffffffffffffffffffffffffffffffffffffffffff1916827bffffffffffffffffffffffffffffffffffffffffffffffffffffffff1916148061051857507f5b5e139f000000000000000000000000000000000000000000000000000000007bffffffffffffffffffffffffffffffffffffffffffffffffffffffff1916827bffffffffffffffffffffffffffffffffffffffffffffffffffffffff1916145b806105285750610527826112fe565b5b9050919050565b60606002805461053e90612b61565b80601f016020809104026020016040519081016040528092919081815260200182805461056a90612b61565b80156105b75780601f1061058c576101008083540402835291602001916105b7565b820191906000526020600020905b81548152906001019060200180831161059a57829003601f168201915b5050505050905090565b60006105cc82611368565b610602576040517fcf4700e400000000000000000000000000000000000000000000000000000000815260040160405180910390fd5b6006600083815260200190815260200160002060009054906101000a900473ffffffffffffffffffffffffffffffffffffffff169050919050565b600061064882610caa565b90508073ffffffffffffffffffffffffffffffffffffffff168373ffffffffffffffffffffffffffffffffffffffff16036106af576040517f943f7b8c00000000000000000000000000000000000000000000000000000000815260040160405180910390fd5b8073ffffffffffffffffffffffffffffffffffffffff166106ce6113b6565b73ffffffffffffffffffffffffffffffffffffffff1614610731576106fa816106f56113b6565b611160565b610730576040517fcfb3b94200000000000000000000000000000000000000000000000000000000815260040160405180910390fd5b5b61073c8383836113be565b505050565b3373ffffffffffffffffffffffffffffffffffffffff163273ffffffffffffffffffffffffffffffffffffffff16146107af576040517f08c379a00000000000000000000000000000000000000000000000000000000081526004016107a690612bde565b60405180910390fd5b6101bc6107ba611470565b106107fa576040517f08c379a00000000000000000000000000000000000000000000000000000000081526004016107f190612c4a565b60405180910390fd5b6001735af0d9827e0c53e4799bb226655a1de152a425a573ffffffffffffffffffffffffffffffffffffffff166370a08231336040518263ffffffff1660e01b815260040161084991906126f0565b602060405180830381865afa158015610866573d6000803e3d6000fd5b505050506040513d601f19601f8201168201806040525081019061088a9190612c7f565b10156108cb576040517f08c379a00000000000000000000000000000000000000000000000000000000081526004016108c290612d1e565b60405180910390fd5b60016108d633610cc0565b10610916576040517f08c379a000000000000000000000000000000000000000000000000000000000815260040161090d90612db0565b60405180910390fd5b600a60009054906101000a900460ff16610965576040517f08c379a000000000000000000000000000000000000000000000000000000000815260040161095c90612e42565b60405180910390fd5b610970336001611483565b565b61097a6113b6565b73ffffffffffffffffffffffffffffffffffffffff16610998610e17565b73ffffffffffffffffffffffffffffffffffffffff16146109ee576040517f08c379a00000000000000000000000000000000000000000000000000000000081526004016109e590612eae565b60405180910390fd5b3373ffffffffffffffffffffffffffffffffffffffff163273ffffffffffffffffffffffffffffffffffffffff1614610a5c576040517f08c379a0000000000000000000000000000000000000000000000000000000008152600401610a5390612bde565b60405180910390fd5b6101bc610a67611470565b10610aa7576040517f08c379a0000000000000000000000000000000000000000000000000000000008152600401610a9e90612c4a565b60405180910390fd5b6101bc610ab2611470565b82610abd9190612efd565b1115610afe576040517f08c379a0000000000000000000000000000000000000000000000000000000008152600401610af590612fc5565b60405180910390fd5b610b083382611483565b50565b6000610b156114a1565b6001546000540303905090565b610b2d8383836114a6565b505050565b610b3a6113b6565b73ffffffffffffffffffffffffffffffffffffffff16610b58610e17565b73ffffffffffffffffffffffffffffffffffffffff1614610bae576040517f08c379a0000000000000000000000000000000000000000000000000000000008152600401610ba590612eae565b60405180910390fd5b600a60009054906101000a900460ff1615600a60006101000a81548160ff021916908315150217905550565b735af0d9827e0c53e4799bb226655a1de152a425a581565b610c0d8383836040518060200160405280600081525061104a565b505050565b6101bc81565b610c206113b6565b73ffffffffffffffffffffffffffffffffffffffff16610c3e610e17565b73ffffffffffffffffffffffffffffffffffffffff1614610c94576040517f08c379a0000000000000000000000000000000000000000000000000000000008152600401610c8b90612eae565b60405180910390fd5b818160099190610ca59291906123dc565b505050565b6000610cb58261195a565b600001519050919050565b60008073ffffffffffffffffffffffffffffffffffffffff168273ffffffffffffffffffffffffffffffffffffffff1603610d27576040517f8f4eb60400000000000000000000000000000000000000000000000000000000815260040160405180910390fd5b600560008373ffffffffffffffffffffffffffffffffffffffff1673ffffffffffffffffffffffffffffffffffffffff16815260200190815260200160002060000160009054906101000a900467ffffffffffffffff1667ffffffffffffffff169050919050565b610d976113b6565b73ffffffffffffffffffffffffffffffffffffffff16610db5610e17565b73ffffffffffffffffffffffffffffffffffffffff1614610e0b576040517f08c379a0000000000000000000000000000000000000000000000000000000008152600401610e0290612eae565b60405180910390fd5b610e156000611be5565b565b6000600860009054906101000a900473ffffffffffffffffffffffffffffffffffffffff16905090565b606060038054610e5090612b61565b80601f0160208091040260200160405190810160405280929190818152602001828054610e7c90612b61565b8015610ec95780601f10610e9e57610100808354040283529160200191610ec9565b820191906000526020600020905b815481529060010190602001808311610eac57829003601f168201915b5050505050905090565b610edb6113b6565b73ffffffffffffffffffffffffffffffffffffffff168273ffffffffffffffffffffffffffffffffffffffff1603610f3f576040517fb06307db00000000000000000000000000000000000000000000000000000000815260040160405180910390fd5b8060076000610f4c6113b6565b73ffffffffffffffffffffffffffffffffffffffff1673ffffffffffffffffffffffffffffffffffffffff16815260200190815260200160002060008473ffffffffffffffffffffffffffffffffffffffff1673ffffffffffffffffffffffffffffffffffffffff16815260200190815260200160002060006101000a81548160ff0219169083151502179055508173ffffffffffffffffffffffffffffffffffffffff16610ff96113b6565b73ffffffffffffffffffffffffffffffffffffffff167f17307eab39ab6107e8899845ad3d59bd9653f200f220920489ca2b5937696c318360405161103e9190612576565b60405180910390a35050565b6110558484846114a6565b6110748373ffffffffffffffffffffffffffffffffffffffff16611cab565b156110bc5761108584848484611cce565b6110bb576040517fd1a57ed600000000000000000000000000000000000000000000000000000000815260040160405180910390fd5b5b50505050565b60606110cd82611368565b611103576040517fa14c4b5000000000000000000000000000000000000000000000000000000000815260040160405180910390fd5b600061110d611e1e565b9050600081510361112d5760405180602001604052806000815250611158565b8061113784611eb0565b604051602001611148929190613021565b6040516020818303038152906040525b915050919050565b6000600760008473ffffffffffffffffffffffffffffffffffffffff1673ffffffffffffffffffffffffffffffffffffffff16815260200190815260200160002060008373ffffffffffffffffffffffffffffffffffffffff1673ffffffffffffffffffffffffffffffffffffffff16815260200190815260200160002060009054906101000a900460ff16905092915050565b600a60009054906101000a900460ff1681565b61120f6113b6565b73ffffffffffffffffffffffffffffffffffffffff1661122d610e17565b73ffffffffffffffffffffffffffffffffffffffff1614611283576040517f08c379a000000000000000000000000000000000000000000000000000000000815260040161127a90612eae565b60405180910390fd5b600073ffffffffffffffffffffffffffffffffffffffff168173ffffffffffffffffffffffffffffffffffffffff16036112f2576040517f08c379a00000000000000000000000000000000000000000000000000000000081526004016112e9906130b7565b60405180910390fd5b6112fb81611be5565b50565b60007f01ffc9a7000000000000000000000000000000000000000000000000000000007bffffffffffffffffffffffffffffffffffffffffffffffffffffffff1916827bffffffffffffffffffffffffffffffffffffffffffffffffffffffff1916149050919050565b6000816113736114a1565b11158015611382575060005482105b80156113af575060046000838152602001908152602001600020600001601c9054906101000a900460ff16155b9050919050565b600033905090565b826006600084815260200190815260200160002060006101000a81548173ffffffffffffffffffffffffffffffffffffffff021916908373ffffffffffffffffffffffffffffffffffffffff160217905550818373ffffffffffffffffffffffffffffffffffffffff168273ffffffffffffffffffffffffffffffffffffffff167f8c5be1e5ebec7d5bd14f71427d1e84f3dd0314c0f7b2291e5b200ac8c7c3b92560405160405180910390a4505050565b600061147a6114a1565b60005403905090565b61149d828260405180602001604052806000815250612010565b5050565b600090565b60006114b18261195a565b90508373ffffffffffffffffffffffffffffffffffffffff16816000015173ffffffffffffffffffffffffffffffffffffffff161461151c576040517fa114810000000000000000000000000000000000000000000000000000000000815260040160405180910390fd5b60008473ffffffffffffffffffffffffffffffffffffffff1661153d6113b6565b73ffffffffffffffffffffffffffffffffffffffff16148061156c575061156b856115666113b6565b611160565b5b806115b1575061157a6113b6565b73ffffffffffffffffffffffffffffffffffffffff16611599846105c1565b73ffffffffffffffffffffffffffffffffffffffff16145b9050806115ea576040517f59c896be00000000000000000000000000000000000000000000000000000000815260040160405180910390fd5b600073ffffffffffffffffffffffffffffffffffffffff168473ffffffffffffffffffffffffffffffffffffffff1603611650576040517fea553b3400000000000000000000000000000000000000000000000000000000815260040160405180910390fd5b61165d85858560016123d0565b611669600084876113be565b6001600560008773ffffffffffffffffffffffffffffffffffffffff1673ffffffffffffffffffffffffffffffffffffffff16815260200190815260200160002060000160008282829054906101000a900467ffffffffffffffff160392506101000a81548167ffffffffffffffff021916908367ffffffffffffffff1602179055506001600560008673ffffffffffffffffffffffffffffffffffffffff1673ffffffffffffffffffffffffffffffffffffffff16815260200190815260200160002060000160008282829054906101000a900467ffffffffffffffff160192506101000a81548167ffffffffffffffff021916908367ffffffffffffffff1602179055506000600460008581526020019081526020016000209050848160000160006101000a81548173ffffffffffffffffffffffffffffffffffffffff021916908373ffffffffffffffffffffffffffffffffffffffff160217905550428160000160146101000a81548167ffffffffffffffff021916908367ffffffffffffffff16021790555060006001850190506000600460008381526020019081526020016000209050600073ffffffffffffffffffffffffffffffffffffffff168160000160009054906101000a900473ffffffffffffffffffffffffffffffffffffffff1673ffffffffffffffffffffffffffffffffffffffff16036118e85760005482146118e757878160000160006101000a81548173ffffffffffffffffffffffffffffffffffffffff021916908373ffffffffffffffffffffffffffffffffffffffff16021790555084602001518160000160146101000a81548167ffffffffffffffff021916908367ffffffffffffffff1602179055505b5b505050828473ffffffffffffffffffffffffffffffffffffffff168673ffffffffffffffffffffffffffffffffffffffff167fddf252ad1be2c89b69c2b068fc378daa952ba7f163c4a11628f55a4df523b3ef60405160405180910390a461195385858560016123d6565b5050505050565b611962612462565b6000829050806119706114a1565b11611bae57600054811015611bad576000600460008381526020019081526020016000206040518060600160405290816000820160009054906101000a900473ffffffffffffffffffffffffffffffffffffffff1673ffffffffffffffffffffffffffffffffffffffff1673ffffffffffffffffffffffffffffffffffffffff1681526020016000820160149054906101000a900467ffffffffffffffff1667ffffffffffffffff1667ffffffffffffffff16815260200160008201601c9054906101000a900460ff16151515158152505090508060400151611bab57600073ffffffffffffffffffffffffffffffffffffffff16816000015173ffffffffffffffffffffffffffffffffffffffff1614611a8f578092505050611be0565b5b600115611baa57818060019003925050600460008381526020019081526020016000206040518060600160405290816000820160009054906101000a900473ffffffffffffffffffffffffffffffffffffffff1673ffffffffffffffffffffffffffffffffffffffff1673ffffffffffffffffffffffffffffffffffffffff1681526020016000820160149054906101000a900467ffffffffffffffff1667ffffffffffffffff1667ffffffffffffffff16815260200160008201601c9054906101000a900460ff1615151515815250509050600073ffffffffffffffffffffffffffffffffffffffff16816000015173ffffffffffffffffffffffffffffffffffffffff1614611ba5578092505050611be0565b611a90565b5b505b5b6040517fdf2d9b4200000000000000000000000000000000000000000000000000000000815260040160405180910390fd5b919050565b6000600860009054906101000a900473ffffffffffffffffffffffffffffffffffffffff16905081600860006101000a81548173ffffffffffffffffffffffffffffffffffffffff021916908373ffffffffffffffffffffffffffffffffffffffff1602179055508173ffffffffffffffffffffffffffffffffffffffff168173ffffffffffffffffffffffffffffffffffffffff167f8be0079c531659141344cd1fd0a4f28419497f9722a3daafe3b4186f6b6457e060405160405180910390a35050565b6000808273ffffffffffffffffffffffffffffffffffffffff163b119050919050565b60008373ffffffffffffffffffffffffffffffffffffffff1663150b7a02611cf46113b6565b8786866040518563ffffffff1660e01b8152600401611d16949392919061312c565b6020604051808303816000875af1925050508015611d5257506040513d601f19601f82011682018060405250810190611d4f919061318d565b60015b611dcb573d8060008114611d82576040519150601f19603f3d011682016040523d82523d6000602084013e611d87565b606091505b506000815103611dc3576040517fd1a57ed600000000000000000000000000000000000000000000000000000000815260040160405180910390fd5b805181602001fd5b63150b7a0260e01b7bffffffffffffffffffffffffffffffffffffffffffffffffffffffff1916817bffffffffffffffffffffffffffffffffffffffffffffffffffffffff191614915050949350505050565b606060098054611e2d90612b61565b80601f0160208091040260200160405190810160405280929190818152602001828054611e5990612b61565b8015611ea65780601f10611e7b57610100808354040283529160200191611ea6565b820191906000526020600020905b815481529060010190602001808311611e8957829003601f168201915b5050505050905090565b606060008203611ef7576040518060400160405280600181526020017f3000000000000000000000000000000000000000000000000000000000000000815250905061200b565b600082905060005b60008214611f29578080611f12906131ba565b915050600a82611f229190613231565b9150611eff565b60008167ffffffffffffffff811115611f4557611f44612944565b5b6040519080825280601f01601f191660200182016040528015611f775781602001600182028036833780820191505090505b5090505b6000851461200457600182611f909190613262565b9150600a85611f9f9190613296565b6030611fab9190612efd565b60f81b818381518110611fc157611fc06132c7565b5b60200101907effffffffffffffffffffffffffffffffffffffffffffffffffffffffffffff1916908160001a905350600a85611ffd9190613231565b9450611f7b565b8093505050505b919050565b600080549050600073ffffffffffffffffffffffffffffffffffffffff168473ffffffffffffffffffffffffffffffffffffffff160361207c576040517f2e07630000000000000000000000000000000000000000000000000000000000815260040160405180910390fd5b600083036120b6576040517fb562e8dd00000000000000000000000000000000000000000000000000000000815260040160405180910390fd5b6120c360008583866123d0565b82600560008673ffffffffffffffffffffffffffffffffffffffff1673ffffffffffffffffffffffffffffffffffffffff16815260200190815260200160002060000160008282829054906101000a900467ffffffffffffffff160192506101000a81548167ffffffffffffffff021916908367ffffffffffffffff16021790555082600560008673ffffffffffffffffffffffffffffffffffffffff1673ffffffffffffffffffffffffffffffffffffffff16815260200190815260200160002060000160088282829054906101000a900467ffffffffffffffff160192506101000a81548167ffffffffffffffff021916908367ffffffffffffffff160217905550836004600083815260200190815260200160002060000160006101000a81548173ffffffffffffffffffffffffffffffffffffffff021916908373ffffffffffffffffffffffffffffffffffffffff160217905550426004600083815260200190815260200160002060000160146101000a81548167ffffffffffffffff021916908367ffffffffffffffff1602179055506000819050600084820190506122848673ffffffffffffffffffffffffffffffffffffffff16611cab565b15612349575b818673ffffffffffffffffffffffffffffffffffffffff16600073ffffffffffffffffffffffffffffffffffffffff167fddf252ad1be2c89b69c2b068fc378daa952ba7f163c4a11628f55a4df523b3ef60405160405180910390a46122f96000878480600101955087611cce565b61232f576040517fd1a57ed600000000000000000000000000000000000000000000000000000000815260040160405180910390fd5b80821061228a57826000541461234457600080fd5b6123b4565b5b818060010192508673ffffffffffffffffffffffffffffffffffffffff16600073ffffffffffffffffffffffffffffffffffffffff167fddf252ad1be2c89b69c2b068fc378daa952ba7f163c4a11628f55a4df523b3ef60405160405180910390a480821061234a575b8160008190555050506123ca60008583866123d6565b50505050565b50505050565b50505050565b8280546123e890612b61565b90600052602060002090601f01602090048101928261240a5760008555612451565b82601f1061242357803560ff1916838001178555612451565b82800160010185558215612451579182015b82811115612450578235825591602001919060010190612435565b5b50905061245e91906124a5565b5090565b6040518060600160405280600073ffffffffffffffffffffffffffffffffffffffff168152602001600067ffffffffffffffff1681526020016000151581525090565b5b808211156124be5760008160009055506001016124a6565b5090565b6000604051905090565b600080fd5b600080fd5b60007fffffffff0000000000000000000000000000000000000000000000000000000082169050919050565b61250b816124d6565b811461251657600080fd5b50565b60008135905061252881612502565b92915050565b600060208284031215612544576125436124cc565b5b600061255284828501612519565b91505092915050565b60008115159050919050565b6125708161255b565b82525050565b600060208201905061258b6000830184612567565b92915050565b600081519050919050565b600082825260208201905092915050565b60005b838110156125cb5780820151818401526020810190506125b0565b838111156125da576000848401525b50505050565b6000601f19601f8301169050919050565b60006125fc82612591565b612606818561259c565b93506126168185602086016125ad565b61261f816125e0565b840191505092915050565b6000602082019050818103600083015261264481846125f1565b905092915050565b6000819050919050565b61265f8161264c565b811461266a57600080fd5b50565b60008135905061267c81612656565b92915050565b600060208284031215612698576126976124cc565b5b60006126a68482850161266d565b91505092915050565b600073ffffffffffffffffffffffffffffffffffffffff82169050919050565b60006126da826126af565b9050919050565b6126ea816126cf565b82525050565b600060208201905061270560008301846126e1565b92915050565b612714816126cf565b811461271f57600080fd5b50565b6000813590506127318161270b565b92915050565b6000806040838503121561274e5761274d6124cc565b5b600061275c85828601612722565b925050602061276d8582860161266d565b9150509250929050565b6127808161264c565b82525050565b600060208201905061279b6000830184612777565b92915050565b6000806000606084860312156127ba576127b96124cc565b5b60006127c886828701612722565b93505060206127d986828701612722565b92505060406127ea8682870161266d565b9150509250925092565b600080fd5b600080fd5b600080fd5b60008083601f840112612819576128186127f4565b5b8235905067ffffffffffffffff811115612836576128356127f9565b5b602083019150836001820283011115612852576128516127fe565b5b9250929050565b600080602083850312156128705761286f6124cc565b5b600083013567ffffffffffffffff81111561288e5761288d6124d1565b5b61289a85828601612803565b92509250509250929050565b6000602082840312156128bc576128bb6124cc565b5b60006128ca84828501612722565b91505092915050565b6128dc8161255b565b81146128e757600080fd5b50565b6000813590506128f9816128d3565b92915050565b60008060408385031215612916576129156124cc565b5b600061292485828601612722565b9250506020612935858286016128ea565b9150509250929050565b600080fd5b7f4e487b7100000000000000000000000000000000000000000000000000000000600052604160045260246000fd5b61297c826125e0565b810181811067ffffffffffffffff8211171561299b5761299a612944565b5b80604052505050565b60006129ae6124c2565b90506129ba8282612973565b919050565b600067ffffffffffffffff8211156129da576129d9612944565b5b6129e3826125e0565b9050602081019050919050565b82818337600083830152505050565b6000612a12612a0d846129bf565b6129a4565b905082815260208101848484011115612a2e57612a2d61293f565b5b612a398482856129f0565b509392505050565b600082601f830112612a5657612a556127f4565b5b8135612a668482602086016129ff565b91505092915050565b60008060008060808587031215612a8957612a886124cc565b5b6000612a9787828801612722565b9450506020612aa887828801612722565b9350506040612ab98782880161266d565b925050606085013567ffffffffffffffff811115612ada57612ad96124d1565b5b612ae687828801612a41565b91505092959194509250565b60008060408385031215612b0957612b086124cc565b5b6000612b1785828601612722565b9250506020612b2885828601612722565b9150509250929050565b7f4e487b7100000000000000000000000000000000000000000000000000000000600052602260045260246000fd5b60006002820490506001821680612b7957607f821691505b602082108103612b8c57612b8b612b32565b5b50919050565b7f41726520796f752077686f20796f752073617920796f75206172653f00000000600082015250565b6000612bc8601c8361259c565b9150612bd382612b92565b602082019050919050565b60006020820190508181036000830152612bf781612bbb565b9050919050565b7f416c6c20536f6e6f72612773206d696e7465642e000000000000000000000000600082015250565b6000612c3460148361259c565b9150612c3f82612bfe565b602082019050919050565b60006020820190508181036000830152612c6381612c27565b9050919050565b600081519050612c7981612656565b92915050565b600060208284031215612c9557612c946124cc565b5b6000612ca384828501612c6a565b91505092915050565b7f596f75206e656564206d6f7265206e6574776f726b2073706972697420746f2060008201527f6d696e74206120536f6e6f72612e000000000000000000000000000000000000602082015250565b6000612d08602e8361259c565b9150612d1382612cac565b604082019050919050565b60006020820190508181036000830152612d3781612cfb565b9050919050565b7f5361766520736f6d6520536f6e6f726120666f7220796f75722066656c6c6f7760008201527f206d696c616479732e0000000000000000000000000000000000000000000000602082015250565b6000612d9a60298361259c565b9150612da582612d3e565b604082019050919050565b60006020820190508181036000830152612dc981612d8d565b9050919050565b7f53616c65206d7573742062652061637469766520746f206d696e7420536f6e6f60008201527f7261730000000000000000000000000000000000000000000000000000000000602082015250565b6000612e2c60238361259c565b9150612e3782612dd0565b604082019050919050565b60006020820190508181036000830152612e5b81612e1f565b9050919050565b7f4f776e61626c653a2063616c6c6572206973206e6f7420746865206f776e6572600082015250565b6000612e9860208361259c565b9150612ea382612e62565b602082019050919050565b60006020820190508181036000830152612ec781612e8b565b9050919050565b7f4e487b7100000000000000000000000000000000000000000000000000000000600052601160045260246000fd5b6000612f088261264c565b9150612f138361264c565b9250827fffffffffffffffffffffffffffffffffffffffffffffffffffffffffffffffff03821115612f4857612f47612ece565b5b828201905092915050565b7f536f7272792c206275742074686572652063616e206f6e6c792062652034343460008201527f20536f6e6f726173000000000000000000000000000000000000000000000000602082015250565b6000612faf60288361259c565b9150612fba82612f53565b604082019050919050565b60006020820190508181036000830152612fde81612fa2565b9050919050565b600081905092915050565b6000612ffb82612591565b6130058185612fe5565b93506130158185602086016125ad565b80840191505092915050565b600061302d8285612ff0565b91506130398284612ff0565b91508190509392505050565b7f4f776e61626c653a206e6577206f776e657220697320746865207a65726f206160008201527f6464726573730000000000000000000000000000000000000000000000000000602082015250565b60006130a160268361259c565b91506130ac82613045565b604082019050919050565b600060208201905081810360008301526130d081613094565b9050919050565b600081519050919050565b600082825260208201905092915050565b60006130fe826130d7565b61310881856130e2565b93506131188185602086016125ad565b613121816125e0565b840191505092915050565b600060808201905061314160008301876126e1565b61314e60208301866126e1565b61315b6040830185612777565b818103606083015261316d81846130f3565b905095945050505050565b60008151905061318781612502565b92915050565b6000602082840312156131a3576131a26124cc565b5b60006131b184828501613178565b91505092915050565b60006131c58261264c565b91507fffffffffffffffffffffffffffffffffffffffffffffffffffffffffffffffff82036131f7576131f6612ece565b5b600182019050919050565b7f4e487b7100000000000000000000000000000000000000000000000000000000600052601260045260246000fd5b600061323c8261264c565b91506132478361264c565b92508261325757613256613202565b5b828204905092915050565b600061326d8261264c565b91506132788361264c565b92508282101561328b5761328a612ece565b5b828203905092915050565b60006132a18261264c565b91506132ac8361264c565b9250826132bc576132bb613202565b5b828206905092915050565b7f4e487b7100000000000000000000000000000000000000000000000000000000600052603260045260246000fdfea2646970667358221220d5cc6f134389ef91d7d90b214409cfe3c5de051b8debe4f7d72f9b9933a8e80064736f6c634300080e0033",
  "immutableReferences": {},
  "source": "// SPDX-License-Identifier: VPL\npragma solidity ^0.8.14;\n\nimport \"@openzeppelin/contracts/access/Ownable.sol\";\nimport \"@openzeppelin/contracts/token/ERC721/ERC721.sol\";\nimport \"erc721a/contracts/ERC721A.sol\";\n\n/**\n * @title Sonora Maker contract\n * @dev Simple implementation for a free mint based on ERC721A\n * */\ncontract SonoraMaker is ERC721A, Ownable {\n    address public constant MILADY_MAKER = 0x5Af0D9827E0c53E4799BB226655A1de152A425a5;\n    uint public constant MAX_SONORA = 444;\n    string private _baseTokenURI;\n    bool public saleIsActive = false;\n\n    constructor(string memory baseURI) ERC721A(\"SonoraMaker\", \"SNRM\") {\n        _baseTokenURI = baseURI;\n    }\n\n    modifier callerIsUser() {\n        require(\n            tx.origin == msg.sender,\n            \"Are you who you say you are?\"\n        );\n        _;\n    }\n\n    modifier supplyRemaining() {\n        require(\n            _totalMinted() < MAX_SONORA,\n            \"All Sonora's minted.\"\n        );\n        _;\n    }\n\n    modifier networkSpirit() {\n        require(\n            ERC721(MILADY_MAKER).balanceOf(msg.sender) >= 1,\n            \"You need more network spirit to mint a Sonora.\"\n        );\n        _;\n    }\n\n    modifier onlyOne() {\n        require(\n            balanceOf(msg.sender) < 1,\n            \"Save some Sonora for your fellow miladys.\"\n        );\n        _;\n    }\n\n    function flipSaleState() public onlyOwner {\n        saleIsActive = !saleIsActive;\n    }\n\n    function mint() external\n        callerIsUser\n        supplyRemaining\n        networkSpirit\n        onlyOne\n    {\n        require(saleIsActive, \"Sale must be active to mint Sonoras\");\n        _safeMint(msg.sender, 1);\n    }\n\n    function reserveMint(uint256 quantity) external\n        onlyOwner\n        callerIsUser\n        supplyRemaining\n    {\n        require(\n            quantity + _totalMinted() <= MAX_SONORA,\n            \"Sorry, but there can only be 444 Sonoras\"\n        );\n        _safeMint(msg.sender, quantity);\n    }\n\n    function setBaseURI(string calldata baseURI) external\n        onlyOwner\n    {\n        _baseTokenURI = baseURI;\n    }\n\n    function _baseURI() internal view virtual override returns (string memory) {\n        return _baseTokenURI;\n    }\n}\n",
  "sourcePath": "/home/gigaverse/proj/sonoramaker/contracts/SonoraMaker.sol",
  "compiler": {
    "name": "solc",
    "version": "0.8.14+commit.80d49f37.Emscripten.clang"
  },
  "schemaVersion": "3.4.7",
  "updatedAt": "2022-05-24T18:38:39.728Z",
  "networkType": "ethereum",
  "devdoc": {
    "details": "Simple implementation for a free mint based on ERC721A ",
    "kind": "dev",
    "methods": {
      "approve(address,uint256)": {
        "details": "See {IERC721-approve}."
      },
      "balanceOf(address)": {
        "details": "See {IERC721-balanceOf}."
      },
      "getApproved(uint256)": {
        "details": "See {IERC721-getApproved}."
      },
      "isApprovedForAll(address,address)": {
        "details": "See {IERC721-isApprovedForAll}."
      },
      "name()": {
        "details": "See {IERC721Metadata-name}."
      },
      "owner()": {
        "details": "Returns the address of the current owner."
      },
      "ownerOf(uint256)": {
        "details": "See {IERC721-ownerOf}."
      },
      "renounceOwnership()": {
        "details": "Leaves the contract without owner. It will not be possible to call `onlyOwner` functions anymore. Can only be called by the current owner. NOTE: Renouncing ownership will leave the contract without an owner, thereby removing any functionality that is only available to the owner."
      },
      "safeTransferFrom(address,address,uint256)": {
        "details": "See {IERC721-safeTransferFrom}."
      },
      "safeTransferFrom(address,address,uint256,bytes)": {
        "details": "See {IERC721-safeTransferFrom}."
      },
      "setApprovalForAll(address,bool)": {
        "details": "See {IERC721-setApprovalForAll}."
      },
      "supportsInterface(bytes4)": {
        "details": "See {IERC165-supportsInterface}."
      },
      "symbol()": {
        "details": "See {IERC721Metadata-symbol}."
      },
      "tokenURI(uint256)": {
        "details": "See {IERC721Metadata-tokenURI}."
      },
      "totalSupply()": {
        "details": "Burned tokens are calculated here, use _totalMinted() if you want to count just minted tokens."
      },
      "transferFrom(address,address,uint256)": {
        "details": "See {IERC721-transferFrom}."
      },
      "transferOwnership(address)": {
        "details": "Transfers ownership of the contract to a new account (`newOwner`). Can only be called by the current owner."
      }
    },
    "title": "Sonora Maker contract",
    "version": 1
  },
  "userdoc": {
    "errors": {
      "ApprovalCallerNotOwnerNorApproved()": [
        {
          "notice": "The caller must own the token or be an approved operator."
        }
      ],
      "ApprovalQueryForNonexistentToken()": [
        {
          "notice": "The token does not exist."
        }
      ],
      "ApprovalToCurrentOwner()": [
        {
          "notice": "The caller cannot approve to the current owner."
        }
      ],
      "ApproveToCaller()": [
        {
          "notice": "The caller cannot approve to their own address."
        }
      ],
      "BalanceQueryForZeroAddress()": [
        {
          "notice": "Cannot query the balance for the zero address."
        }
      ],
      "MintToZeroAddress()": [
        {
          "notice": "Cannot mint to the zero address."
        }
      ],
      "MintZeroQuantity()": [
        {
          "notice": "The quantity of tokens minted must be more than zero."
        }
      ],
      "OwnerQueryForNonexistentToken()": [
        {
          "notice": "The token does not exist."
        }
      ],
      "TransferCallerNotOwnerNorApproved()": [
        {
          "notice": "The caller must own the token or be an approved operator."
        }
      ],
      "TransferFromIncorrectOwner()": [
        {
          "notice": "The token must be owned by `from`."
        }
      ],
      "TransferToNonERC721ReceiverImplementer()": [
        {
          "notice": "Cannot safely transfer to a contract that does not implement the ERC721Receiver interface."
        }
      ],
      "TransferToZeroAddress()": [
        {
          "notice": "Cannot transfer to the zero address."
        }
      ],
      "URIQueryForNonexistentToken()": [
        {
          "notice": "The token does not exist."
        }
      ]
    },
    "kind": "user",
    "methods": {},
    "version": 1
  }
}